:020000040000FA
:1000000002005000000080FB120080B900030200D3
:100010003A900200AA82AB83900083780579018030
:1000200015E493A3AC82AD838A828B83F0A3AA826A
:10003000AB838C828D83D8E9D9E77582C175830241
:1000400074001200627582037583007400120062EE
:1000500075D0007581BF751000751102759F000283
:100060000008C09FF59FE473D09F22D083D082C048
:100070009FE493C0E0740193C0E0740293F59F2263
:10008000790122EFDFBF7F12006BB4010012006B19
:10009000DB010012006BE3010012006B530200123F
:1000A000006B61020012006B7E020012006B9B026B
:1000B00000CAC0E0E0A3C582CCC582C583CDC5839C
:1000C000F0A3C582CCC582C583CDC583DAE6D0E076
:1000D000CA22251010AF08F510400215118008F54E
:1000E0001040021511D2AF22C0D0251010AF08F574
:1000F00010500205118008F51050020511D2AFD042
:10010000D0222510C582C0E0E51134FFC583C0E0D0
:10011000E510C3958224F810AF08858311858210FD
:100120008008858311858210D2AFCEF0A3E520F040
:10013000A37808E608F0A3DEFAEFF0A3E58124FA3D
:10014000F8E608F0A3E608F0A3E608F0A30808E63E
:1001500008F0A3E608F0A315811581D0E0FED0E0F9
:10016000F8158115811581E8C0E0EEC0E022851107
:1001700083851082E0A3FEE0A3F5207808E0A3F6D3
:1001800008DFFAE0A3FFE0A3C0E0E0A3C0E0E0A343
:10019000C0E0E0A3C0E0E0A3C0E010AF088582109B
:1001A0008583118008858210858311D2AFD083D0DA
:1001B00082020068EAF8EBF98014EA24FFFAEB34D3
:1001C000FFFBEA4B70F4E824FFF8E934FFF9E84953
:1001D00060067A6E7B0080EA020068E5FD75FDFF2F
:1001E00002006874F612010274FC1200D290020040
:1001F000C082C083851082851183AC82AD83D08399
:10020000D08274041200B17800800108E8C394041D
:1002100050378808750900851082851183E582258D
:1002200008F582E5833509F583E0F5807A017900E8
:100230008005EAC333FA09E9C3940450CEE5805A35
:1002400070F075F004E8A429F974041200E87F0244
:1002500002016EE5FDF875FDFFE5FE75FEFF02008B
:100260006874F7120102E9FEC285C2868E907AE8B0
:100270007B03120087D287C2877F0102016E74F769
:10028000120102E9FED285C2868E907AE87B0312C3
:100290000087D287C2877F0102016EC082C0837946
:1002A0003812009F790C12009F790612009F790185
:1002B00012009F7AE87B03120087D083D08202006D
:1002C0006812008D1200991200AB7580F074F06511
:1002D0008060127A0F7B0012008774F065806005E1
:1002E000120093E9FFEF75F01084E5F0AEF079802D
:1002F00012009FEEF91200A57AE87B0312008779BD
:0D0300000112009F7A057B0012008780BD6E
:0400000500000050A7
:00000001FF
